:100000000C94A2060C94C9060C94C9060C94C9065B
:100010000C94C9060C94C9060C94C9060C94C90624
:100020000C94C9060C94C9060C94C9060C94C90614
:100030000C94C9060C94C9060C94C9060C94C90604
:100040000C94C9060C94C9060C9455080C94C90666
:100050000C94C9060C94C9060C94C9060C94C906E4
:100060000C94C9060C94C906C5112913E411A612F3
:10007000B211E9123E130112AB113E133E130B13E2
:1000800088123E133E13CB1264123E13D011D911C5
:100090003E133E133E133E1334124A1260014201D6
:1000A0001801F800DD00A800556E646572207468C0
:1000B000652063697263756D7374616E6365732C1B
:1000C0002049277665206265656E2053484F434B73
:1000D000494E474C59206E6963652E000045786390
:1000E0006570742049207761736E2774206C617588
:1000F0006768696E672E00004F6820686F77207709
:1001000065206C61756768656420616E64206C6150
:10011000756768656421000052656D656D62657282
:1001200020686F7720796F75207472696564207418
:100130006F206B696C6C206D652074776963653F17
:1001400000004974277320616C776179732073759F
:100150006368206120706C6561737572652E0000A4
:1001600057656C6C206865726520776520617265E3
:1001700020616761696E2E00000000000000006FC2
:100180006F00000007000700147F147F1400266B27
:100190002A104333086463324D493650000007008B
:1001A00000001C2241000041221C00110A1F0A11FC
:1001B00010107C10100000A0600010101010100033
:1001C0000060600040300806013E5149453E004253
:1001D0007F40004261514946224149493618141274
:1001E0007F1027454545393C4A4949300171090589
:1001F000033649494936064949291E00006C6C00FE
:100200000000AC6C000814224100141414141400F3
:100210004122140802015109063E415D5D467C12EF
:1002200011127C7F494949363E414141227F41417B
:10023000413E7F494949417F090909013E414151F8
:10024000727F0808087F41417F414121413F010100
:100250007F081422417F404040407F0204027F7F9C
:100260000608307F3E4141413E7F090909063E4173
:1002700041617E7F09192946264949493201017F9A
:1002800001013F4040403F1F2040201F3F40304081
:100290003F63140814630304780403615149454320
:1002A00000007F410000000000000106083040040B
:1002B000020102048080808080010204000020543A
:1002C0005454787F4844443838444444283844449B
:1002D000487F3854545418087E09010218A4A4A475
:1002E000787F0808087000487A4000408080887A4B
:1002F0007F1010284400417F40007C043804787C43
:10030000040404783844444438FC24242418182471
:1003100024FC807C08040408485454542000083C01
:1003200048203C4040407C0C3040300C1C60186041
:100330001C44281028441CA0A0A07C4464544C44B5
:1003400000083641412040FF40204141360800105E
:1003500008181008FFC08100010081C07EFFFFFF68
:10036000FFFFFF7EEFDFBF0000BFDFEFEFDFBF006B
:10037000FFFFFFFFC3810000000099DBC381000085
:10038000000081C3DB990000000081C3C38100002D
:10039000000081C3FFFFFFFFFFFFFFFFFFFFFFFF25
:1003A000FFFFFFFFFFFFFFFFFFFFFFFFFFFFFFFF5D
:1003B000FFFFFFFFFFFFFFFFFFFFFFFFFFFFFFFF4D
:1003C000FFFFFFFFFFFFFFFFFFFFFFFFFFFFFFFF3D
:1003D000FFFFFFFFFFFFFFFFFFFFFFFFFFFFFFFF2D
:10075000FFFFFFFF003F42918291423F8100000076
:1007600000000081102040FFFF402010102040FFBB
:10077000000000003C4281A1899966243C4281A18D
:1007800081894A3C24669989A181423C3C4A8981FD
:10079000A181423CFFFFFFFFFFFFFFFFFFFFFFFFC5
:1007A000FFFFFFFFFFFFFFFFFFFFFFFFFFFFFFFF59
:1007B000FFFFFFFFFFFFFFFFFFFFFFFFFFFFFFFF49
:1007C000FFFFFFFFFFFFFFFFFFFFFFFFFFFFFFFF39
:1007D000FFFFFFFFFFFFFFFFFFFFFFFFFFFFFFFF29
:100B5000FFFFFFFF80C0400C3EFEF2E0F0E0FF7FB1
:100B60003F1F1F1F1F0F07030000000000006F6FD3
:100B700000000007000700147F147F1400266B2A72
:100B8000104333086463324D4936500000070000BB
:100B9000001C2241000041221C00110A1F0A1110F2
:100BA000107C10100000A060001010101010000049
:100BB00060600040300806013E5149453E00427FDA
:100BC0004000426151494622414949361814127F7A
:100BD0001027454545393C4A49493001710905030B
:100BE0003649494936064949291E00006C6C000007
:100BF00000AC6C00081422410014141414140041B9
:100C000022140802015109063E415D5D467C121125
:100C1000127C7F494949363E414141227F41414151
:100C20003E7F494949417F090909013E41415172CD
:100C30007F0808087F41417F414121413F01017FF9
:100C4000081422417F404040407F0204027F7F061B
:100C500008307F3E4141413E7F090909063E41413E
:100C6000617E7F09192946264949493201017F01E0
:100C7000013F4040403F1F2040201F3F4030403F49
:100C80006314081463030478040361514945430065
:100C9000007F41000000000000010608304004020F
:100CA00001020480808080800102040000205454EE
:100CB00054787F48444438384444442838444448AD
:100CC0007F3854545418087E09010218A4A4A4784B
:100CD0007F0808087000487A4000408080887A7F4A
:100CE0001010284400417F40007C043804787C04C4
:100CF0000404783844444438FC2424241818242458
:100D0000FC807C08040408485454542000083C48E3
:100D1000203C4040407C0C3040300C1C6018601C73
:100D200044281028441CA0A0A07C4464544C4400D7
:100D3000083641412040FF4020414136080010085C
:100D400018100800E9E2F2E085EC94E001C081931C
:100D5000EF3FF907E0F3D9F311241FBECFEFD4E042
:100D6000DEBFCDBF11E0A0E0B1E0ECE7FCE202C0E5
:100D700005900D92AE31B107D9F722E0AEE1B1E0B6
:100D800001C01D92A932B207E1F70E94DE070C9460
:100D90003C160C940000BF92CF92DF92EF92FF922C
:100DA0000F931F93CF93DF93CDB7DEB7C054D10914
:100DB0000FB6F894DEBF0FBECDBF0CE910E02DEFEB
:100DC000F22EF80165917491CE0101960E944E13A6
:100DD000E12CE1E0F0E0EC0FFD1FEE0DF11D808154
:100DE000882321F0E3940E94DC0CF3CF8DE00E9475
:100DF000DC0C2FEF8EE994E2215080409040E1F727
:100E000000C0000021E02F1598F08FEF9EE924E24A
:100E1000815090402040E1F700C000000E94050B87
:100E200010922801809100018695885080932901B5
:100E30000E5F1F4FF39483E0F812C3CFDD24D394E9
:100E4000F12CEE24E3942F2D30E08091000190E00E
:100E5000079728173907ECF410E0412F50E0209154
:100E6000010130E0275031094217530774F4DD20A7
:100E700011F000E001C001E020E34FE76F2D812F6A
:100E80000E94DB0EDE24185FE8CFDE2498E0F90E26
:100E9000DACF2FEF89E698E1215080409040E1F7CA
:100EA00000C0000012E0809101018695181790F4AF
:100EB00060910001669520E0412F0E945C0C2FEFAD
:100EC00084E39CE0215080409040E1F700C00000A6
:100ED000185FE9CFFF24F39410E0EE24E394212F70
:100EE00030E08091000190E00797281739070CF057
:100EF00040C0D12C87E0C82EC10EED2DF0E040910E
:100F0000010150E047505109E417F50784F500E06E
:100F100020E3FF2011F044E001C045E0612F8D2D5A
:100F20000E94DB0EFE249AE0B92EBD0C00E020E307
:100F300040E0612F8B2D0E94DB0E2FEF83EC99E0B8
:100F4000215080409040E1F700C0000047E04D0D87
:100F50002C2D612F8D2D0E94090E41E14D0D2C2D60
:100F6000612F8B2D0E94090E28E0D20EC6CF185F8C
:100F7000B6CFC05CDF4F0FB6F894DEBF0FBECDBF5B
:100F8000DF91CF911F910F91FF90EF90DF90CF9065
:100F9000BF90089582E38093800089E1809381006F
:100FA00084E690E090938700809386000E9414105E
:100FB00090E090938B0080938A0008952B9A2AE109
:100FC0002A95F1F700C01B9B04C081E080932201A9
:100FD00002C0109222012B980E9485080E94CA0725
:100FE00080E190E00E94181078940E94FB0F8170BD
:100FF00080931E010E94ED0A0E94050B0E94EC0FD7
:1010000080FD0E94400E8FEF93ED20E381509040D1
:101010002040E1F700C0000080912101811122C031
:101020000E940B10833399F038F4813369F08233D6
:10103000E1F48FEC90E013C0853379F058F08633FB
:10104000A1F480E190E00BC080EA91E008C087E65F
:1010500090E005C083E390E002C082E290E00E944D
:10106000181003C086E30E9401100E94050B0E9425
:101070004310809121018823E1F30E9426108C37D0
:1010800049F4809121018823E1F30E9426100E94F7
:101090009811EFCF90EE980F9F3520F08D3011F022
:1010A000883039F70E94DC0CE4CF1F920F920FB604
:1010B0000F9211248F93EF93FF938091C00087FFCD
:1010C0001CC08091210187FD599A809121018F5F79
:1010D00080932101E091200181E08E0F8093200117
:1010E000F0E08091C600E65DFE4F80838091200194
:1010F0008F3F19F710922001E0CFFF91EF918F9170
:101100000F900FBE0F901F9018958FE384B915B8FC
:101110008EEF8AB91BB885B7806185BF2C9A8AE1AA
:101120008A95F1F700C02C982D9A8AE18A95F1F7FB
:1011300000C02D982A9880912201882311F08130D7
:1011400019F48FE387B988B9089594B1936094B97D
:101150009AB19C6F9AB925B1982F93702C7F922BDE
:1011600095B99BB18C7F9370892B8BB9089584B10D
:101170008C7F84B98AB183708AB983B199B19C7F1D
:101180008370892B089584B18C7F84B98AB1837070
:101190008AB9089543982FEF80E792E0215080406C
:1011A0009040E1F700C00000439A2FEF80E792E003
:1011B000215080409040E1F700C0000008958AE18E
:1011C0008A95F1F700C0409A8AE18A95F1F700C04C
:1011D00040988AE18A95F1F700C00895409888B157
:1011E000866388B9089588B1897F88B98FE30E94A2
:1011F000A5080E94DF080E94C3080C94EE0898B16D
:10120000997F98B9809323018F7380640E94A50809
:101210000E94DF080E94C3080C94EE0898B1997FE1
:1012200098B98770886B0E94A5080E94DF080E9409
:10123000C3080C94EE082D9A98B18260809589239A
:1012400088B985E08A95F1F70000409A85E08A9593
:10125000F1F700000E94B708409887FDF6CF0E9482
:10126000EE082D980895CF93C82F809123018034E4
:1012700030F480E10E941B0998B19B7E05C080E29A
:101280000E941B0998B19B7D98B98C2F0E94A508DC
:101290000E94DF080E94C3080E94EE08809123018B
:1012A0008F5F8093230187FF05C01092230180E0A8
:1012B0000E94FF0880912301803419F4CF910C948F
:1012C000FF08CF9108951F93CF93DF9390911E0154
:1012D00081E0913009F080E0182F1195C0E080E0A6
:1012E0000E94FF088C2F0E940E09D0E0812F0E94DF
:1012F0003309DF5FD038D1F7CF5FC83081F780E0A6
:101300000E94FF0880E0DF91CF911F910C940E099D
:10131000CF92DF92EF92FF920F931F93CF93DF93C1
:10132000182FD62FE42EC22FC61B80911E018130AC
:1013300009F40095DD24D3940111D12C8D2F8770F1
:1013400011F4C73088F4F12EEF1438F04D2D6D2FC5
:101350008F2D0E94190BF394F7CFDF5FC1508D2FB3
:10136000877011F0CF3F79F7CD2ECC0EDC2DDC1B32
:101370008D2F877019F0FD2EFC0E16C0C830D8F3E3
:10138000812F0E94FF088D2F8695869586950E9455
:101390000E09F12EEF1428F0802F0E943309F394E8
:1013A000F9CFC850E3CFC1500F2D0C1BCF3F51F0E8
:1013B000D12FED16C0F34D2D602F8D2F0E94190BEC
:1013C000DF5FF7CFDF91CF911F910F91FF90EF90EB
:1013D000DF90CF900895CF93DF931F92CDB7DEB704
:1013E000803428F480E10E941B09449804C080E204
:1013F0000E941B09459885E38A95F1F70000409A01
:1014000095E39A95F1F700004098E5E3EA95F1F746
:101410000000409AF5E3FA95F1F700000E94B70842
:10142000409895E39A95F1F7000089830E94EE08B1
:1014300089810F90DF91CF9108959F92AF92BF92D3
:10144000CF92DF92EF92FF920F931F93CF93DF9390
:10145000D82EB42EC52E862F8770982E88E0E82EC1
:10146000E918A62EA694A694A6948A2D0E940E0989
:10147000CB2DDC2DF12C08E010E0091911098F2D7E
:101480008D0D0E94EB09002E01C0880F0A94EAF727
:101490008993F39488E0F812F2CF81E08A0D0E94DC
:1014A0000E09CB2DDC2DF12C08E010E00E191109EE
:1014B000E8808F2D8D0D0E94EB09282F30E0002E43
:1014C00002C0359527950A94E2F72E292993F394C3
:1014D00088E0F812EDCFDF91CF911F910F91FF902F
:1014E000EF90DF90CF90BF90AF909F9008950F93B3
:1014F0001F93CF93DF931F92CDB7DEB7182F062F20
:1015000049830E94FF08802F8695869586950E94C4
:101510000E09812F0E94EB09982F602F6770809130
:101520001E01498121E030E0062E01C0220F0A94FD
:10153000EAF7811103C0411105C002C0413011F426
:10154000292B02C020952923812F29830E94FF087F
:101550002981822F0F90DF91CF911F910F910C94D1
:101560003309CF92DF92FF920F931F93CF93DF93B4
:101570001F92CDB7DEB7F82E6A0169830E94FF087B
:101580006981862F8695869586950E940E09C601EB
:1015900087589E4F6C010F2D10E00C5F1F4F2F2DB1
:1015A00030E00217130784F0F0922301F6018491D2
:1015B00090911E01913009F480950E943309F394B3
:1015C000FFEFCF1ADF0AEBCF0F90DF91CF911F9182
:1015D0000F91FF90DF90CF900895809122018111AB
:1015E0000BC00E94CA080E94F3080E94630980E8A9
:1015F0008093010180E406C00E94E91080EA809394
:10160000010180E880930001089580912601809374
:1016100028018091270180932901109225011092C1
:10162000240180912201811102C00C9463090C9461
:10163000CF109091220191110AC090910101891758
:1016400090F490910001691770F40C94770A91302E
:1016500051F490910101891730F4909100016917BC
:1016600010F40C94011108952F923F924F925F92C3
:101670006F927F928F929F92AF92BF92CF92DF92A2
:10168000EF92FF920F931F93CF93DF93482E562E26
:10169000481728F4522E262F842D442E482F44120A
:1016A0001AC0251518F4852D522E282FC0E0D0E041
:1016B000052D10E0622E712CCE01800F911F68164F
:1016C00079060CF4C0C06C2F650D40E0842D0E949B
:1016D000190B2196F1CFA42CB12C842E912C5212EF
:1016E00011C0C0E0D0E0CE018A0D9B1D881699067E
:1016F0000CF4A9C040E0652D8C2F840D0E94190BBD
:101700002196F1CF622E712CC52DD0E093012C1BB8
:101710003D0B8501A4014A195B096901CC0CDD1C54
:101720007A01EE0CFF1C160137FD44C02E183F084D
:1017300042175307FCF08601041B150BE12CF12C1A
:10174000C7018A0D9B1D881699060CF47CC040E0E9
:101750006C2F842D8E0D0E94190B101611061CF093
:101760000C0D1D1D03C02196020D131D8FEFE81AED
:10177000F80AE6CF6701C21AD30AA12CB12CC50121
:101780008C0F9D1F681679060CF45DC040E0652D36
:101790006A0D802F0E94190B1C141D041CF0CE0C26
:1017A000DF1C04C00F5F1F4FC218D3088FEFA81AA9
:1017B000B80AE5CF2E0C3F1CEE27FF27E21BF30BE8
:1017C0004E175F070CF1002711270C191D09041B88
:1017D000150BE12CF12CC7018A0D9B1D881699066B
:1017E00094F140E06C2F842D8E0D0E94190B101681
:1017F00011061CF00C191D0903C0219702191309C9
:101800008FEFE81AF80AE7CF6701C20ED31EA12CAA
:10181000B12CCE018A199B0986159705A4F040E0EA
:10182000652D6A19802F0E94190B1C141D041CF0D1
:10183000CE0CDF1C04C00F5F1F4FC20CD31C8FEFF8
:10184000A81AB80AE6CFDF91CF911F910F91FF90B0
:10185000EF90DF90CF90BF90AF909F908F907F9050
:101860006F905F904F903F902F900895EF92FF926E
:101870000F931F93CF93DF93E82EF62EC42F122FD2
:10188000482F0E94340B2F2D4C2F6F2D8E2D0E9430
:10189000340B212F4E2D612F8C2F0E94340B2F2DB6
:1018A0004C2F612F8C2F0E94340BDF91CF911F9111
:1018B0000F91FF90EF9008955F926F927F928F92B9
:1018C0009F92AF92BF92CF92DF92EF92FF920F93CF
:1018D0001F93CF93DF93B82EA62E042F10E098010C
:1018E000220F331FEE24E394F12CE21AF30AC12CE9
:1018F000D12CC0E0D0E08C2E8A0C40E0682D7B2CEF
:10190000700E872D0E94190B9C2E9B0C40E06A2CB8
:10191000600E662D892D0E94190B40E0682D8B2CDE
:10192000801A882D0E94190B5B2C5C1A40E0662DF2
:10193000852D0E94190B6A2C6C1A40E0662D882DAB
:101940000E94190B40E08A2C801A682D852D0E9478
:10195000190B40E0662D872D0E94190B40E0682D81
:10196000892D0E94190B9E01220F331FC20ED31E18
:1019700021969601220F331F2E0D3F1D12161306BE
:101980003CF401501109CE0CDF1C82E0E80EF11C82
:101990000C171D070CF0AFCFDF91CF911F910F9166
:1019A000FF90EF90DF90CF90BF90AF909F908F907F
:1019B0007F906F905F900895EF92FF920F931F9327
:1019C000CF93DF93C82F8830A9F18D3009F09FC0E5
:1019D0004091010150E0455051092091240130917E
:1019E0002501E09128018E2F90E0EA5FB9016F5F39
:1019F0007F4F8417950714F49B01F5CF3093250191
:101A0000209324018091260180932801809129014F
:101A1000885F8093290190E02091000130E02750F9
:101A20003109821793070CF472C0809127018093CB
:101A300029016DC020912401309125012115310526
:101A400009F465C021503109309325012093240108
:101A50004091280180912601481335C050912901F9
:101A60008091270158131EC02091000130E02850BA
:101A7000310968E0650F852F90E08217930714F411
:101A8000562FF7CF509329012091010130E02550C6
:101A9000310956E0540F842F90E0821793079CF48D
:101AA000452FF7CF5850509329012091010130E084
:101AB0002550310956E0540F842F90E08217930788
:101AC00014F4452FF7CF465040932801D0912801B8
:101AD0002091280130E02C5F3F4F4D2F50E024171C
:101AE0003507ACF0109129012091290130E0295FE0
:101AF0003F4F412F50E0241735073CF041E0612F64
:101B00008D2F0E94190B1F5FEFCFDF5FE1CF80EEBB
:101B10008C0F8F3508F076C08C2F90E0809725E0F1
:101B2000289FA001299F500D11248091240190919C
:101B30002501019690932501809324018091220133
:101B400081110AC060912901862F877029F4809144
:101B500028010E94B10A34C0F0902801EA01C85956
:101B6000D44F2091280130E02C5F3F4F4F2D50E0A3
:101B7000241735072CF1FE010491E090290110E0B3
:101B80004091290150E02E2D30E0FA013796E217FE
:101B9000F3079CF0241B350BC80102C0959587956F
:101BA0002A95E2F780FF02C040E001C041E06E2DBF
:101BB0008F2D0E94190BE394E3CFF3942196D1CF9C
:101BC000209128012A5F2093280130E080910101B3
:101BD00090E0069728173907ACF080912601809392
:101BE000280120912901285F2093290130E080916C
:101BF000000190E007972817390724F0809127010A
:101C000080932901DF91CF911F910F91FF90EF9069
:101C10000895EF92FF920F931F93CF93DF931F923C
:101C2000CDB7DEB7E82EF62E142F481710F4E42EA9
:101C3000182F2F1518F48F2DF22E282F80912201A6
:101C4000811108C000E0412F6F2D8E2D0E94880960
:101C50000FC0F3942F1560F00E2D1017D0F341E054
:101C60006F2D802F29830E94190B0F5F2981F5CFDB
:101C70000F90DF91CF911F910F91FF90EF900895FA
:101C80009F92AF92BF92CF92DF92EF92FF920F930B
:101C90001F93CF93DF93CDB7DEB7A0970FB6F8941D
:101CA000DEBF0FBECDBFC0900101C694E6EFFE2E91
:101CB000FC0CB0900001B694F8EF9F2E9B0C04E54D
:101CC0001BE0EF2CF801A490D92C90911E018A2DD5
:101CD0008170911102C019F004C0882311F041E015
:101CE00001C040E06D2D8E2D0E94190BA694D39457
:101CF000DB10EBCF0F5F1F4FE394EC10E3CF0EE54B
:101D00001BE0F801A490EB2CD12C90911E018A2DA0
:101D10008170911102C019F004C0882311F041E0D4
:101D200001C040E06E2D8F2D0E94190BA694D39414
:101D3000E394F8E0DF12E9CF0F5F1F4FF394FC103C
:101D4000E0CF82E091E09F938F938BE091E09F93AF
:101D50008F9387E191E09F938F938E010F5F1F4FC9
:101D60001F930F930E9455130FB6F894DEBF0FBE5A
:101D7000CDBFF80181918F01882319F00E94DC0CFE
:101D8000F8CFA0960FB6F894DEBF0FBECDBFDF919F
:101D9000CF911F910F91FF90EF90DF90CF90BF9068
:101DA000AF909F90089590912201911102C00C94E0
:101DB0001D0A0C9421119F92AF92BF92CF92DF9295
:101DC000EF92FF920F931F93CF93DF93CDB7DEB7C0
:101DD00029970FB6F894DEBF0FBECDBFB82E162FD1
:101DE00088E0489F70011124AE014F5F5F4F8B2D3B
:101DF00029870E94D30EDE011196A701C70108961C
:101E0000298548175907B0F430911E01332319F082
:101E10003C9130953C93FA01EC5AFC4F3491FA0115
:101E2000EC5AF84FE4916C9136233E2B3D934F5F73
:101E30005F4FE7CF233351F178F4203309F0B0C07E
:101E40006E01F9E0CF0ED11CCE0101967C01A7E016
:101E50009A2E910E11503CC0263381F0293309F09F
:101E60009FC087E0C82EC10EAA24AA94A10EFE012D
:101E700031967F0117E01B0DBA948CC0B7E0DB2EC2
:101E8000DB0CBA94CE0101967C0165C06E0199E02D
:101E9000C90ED11CFE0131967F013CC0F701808143
:101EA000011118C080FD18C041E06A2D8B2D0E94E1
:101EB000190BF701808186958083AA94A112EECF39
:101EC000FFEFEF1AFF0AB394EC14FD0409F468C0A5
:101ED000A92CE4CF80FDE8CF40E0E7CFF701808177
:101EE00001111BC080FD1BC041E0612F8A2D0E94A3
:101EF000190BF7018081869580839394A394F8E071
:101F00009F12ECCF8FEFE81AF80A1F5FEC14FD0464
:101F100009F446C0AB2C912CE1CF80FDE5CF40E029
:101F2000E4CFF7018081011119C080FD19C041E0A3
:101F30006C2D8D2D0E94190BF70180818695808371
:101F4000A394C394F8E0AF12ECCF8FEFE81AF80A2D
:101F5000DA94DB1429F1C12EA12CE3CF80FDE7CF69
:101F600040E0E6CFF7018081011116C080FD16C068
:101F700041E06C2D8D2D0E94190BF7018081869513
:101F80008083DA94DB10EECFFFEFEF1AFF0ACA94DA
:101F9000CA1431F0D12EE6CF80FDEACF40E0E9CF80
:101FA00029960FB6F894DEBF0FBECDBFDF91CF915B
:101FB0001F910F91FF90EF90DF90CF90BF90AF9067
:101FC0009F90089580E090E00E94491561E06827A5
:101FD00080E090E00C94511580E090E00C9449155D
:101FE00081E090E00E944915682F6095617081E062
:101FF00090E00C94511581E090E00E944915809585
:1020000008959FEC980F963028F4682F82E090E0B6
:102010000C945115089582E090E00C944915682FB6
:1020200083E090E00C94511583E090E00C94491506
:102030009093C5008093C40082E08093C00080E943
:102040008093C10086E08093C2000895F894809147
:10205000210181508093210180912101803108F478
:102060005998E0911F0181E08E0F80931F01F0E0ED
:10207000E65DFE4F808190911F019F3F11F4109209
:102080001F0178940895F8941092210110921F0175
:1020900010922001599878940895419885E08A9586
:1020A000F1F70000429885E08A95F1F700000E9460
:1020B000B708429A98B19B6098B908950E944D1054
:1020C0008370E1F30895CF93DF931F92CDB7DEB70E
:1020D00089830E945E1089810E94A508439885E04B
:1020E0008A95F1F7000088B18A7F88B9E5E0EA9522
:1020F000F1F70000429A88B18B6088B90F90DF91A8
:10210000CF9108950E945E10439885E08A95F1F77B
:10211000000088B1897F88B985E08A95F1F70000D1
:102120000E94B708429A98B19B6098B90895CF93DE
:10213000DF931F92CDB7DEB789830E945E1089813D
:102140000E94A50885E08A95F1F700004098E5E037
:10215000EA95F1F700004298F5E0FA95F1F70000F2
:10216000429A88B18B6088B90F90DF91CF91089522
:10217000CF93DF93869586958695C82FD0E084E12E
:10218000689FC00DD11D11248C2F0E9463108D2FCC
:102190000E94631084E2DF91CF910C949710CF934B
:1021A000DF9360E080E00E94B810C0E0DAE0809148
:1021B0001E01882311F08FEF01C080E00E946310A0
:1021C00080EC0E9497102197209789F7DF91CF919B
:1021D000089580E00E94631080E00E94631082E412
:1021E0000E94971084E10E94631080E00E946310B7
:1021F00083E40E94971080E80E94971088E90C946D
:1022000097101F93CF93DF931F92CDB7DEB7182F90
:1022100049830E94B810812F8095877090911E018C
:102220004981992319F0411103C004C0411102C032
:10223000886F01C0806F0F90DF91CF911F910C9438
:1022400097109F92AF92BF92CF92DF92EF92FF9240
:102250000F931F93CF93DF93CDB7DEB72A970FB6B7
:10226000F894DEBF0FBECDBFC82EA62ECE010196BC
:102270007C01D12C9C2D9770B92E08E010E0091B31
:1022800011096D2D6A0D8C2D49875A870E94B8104F
:1022900081EC0E9497100E948210982E85EC0E947B
:1022A00097100E948210282F30E0002E02C0359532
:1022B00027950A94E2F7992D0B2C01C0990F0A94E7
:1022C000EAF7922BF70191937F01D39449855A85C0
:1022D000F8E0DF12D6CFFA0178E021E030E0DE014D
:1022E000119680E090E010E06D91A901082E01C0E8
:1022F000440F0A94EAF76423612B01968830910514
:1023000011F0162FF1CF6193715049F72A960FB64D
:10231000F894DEBF0FBECDBFDF91CF911F910F911B
:10232000FF90EF90DF90CF90BF90AF909F90089577
:102330000F931F93CF93DF9300D000D01F92CDB7A0
:10234000DEB790E08A31910508F098C1FC01EC5CA1
:10235000FF4F0C944813599A85E38A95F1F70000D2
:1023600059988CC10E94050B0E94CB0680911E01DA
:1023700011E0812780931E010E94050B0E94CB066D
:1023800080911E01812780931E010F900F900F9066
:102390000F900F90DF91CF911F910F910C94050B2F
:1023A00080911E0191E0892780931E010E94F00F09
:1023B000ECCF0F900F900F900F900F90DF91CF9177
:1023C0001F910F910C94E20F809121018823E1F37A
:1023D0000E9426108983853610F084E689838981DE
:1023E00090E090938B0080938A0089810F900F90EA
:1023F0000F900F900F90DF91CF911F910F910C9440
:102400000F10809121018823E1F30E942610182FDC
:102410000E9401101333A9F040F4113379F0123304
:1024200009F02CC18FEC90E00EC01533D1F0B0F064
:10243000163309F023C180E190E005C080EA91E005
:1024400002C087E690E00F900F900F900F900F90D2
:10245000DF91CF911F910F910C94181083E390E0BE
:10246000F2CF82E290E0EFCF809121018823E1F367
:102470000E9426102091010130E025503109482F9B
:1024800050E0421753070CF0F9C080932601809367
:10249000280115C0809121018823E1F30E942610B4
:1024A0002091000130E027503109482F50E04217B9
:1024B00053070CF0E3C08093270180932901109209
:1024C000250110922401DAC010E0809121018823B7
:1024D00061F001E0010F0E942610E1E0F0E0EC0F56
:1024E000FD1FE10FF11D8083102F133070F341E0C9
:1024F0008B81811140E06A8189810F900F900F904C
:102500000F900F90DF91CF911F910F910C94190BA9
:1025100010E080912101882361F001E0010F0E9409
:102520002610E1E0F0E0EC0FFD1FE10FF11D8083CC
:10253000102F153070F301E08D81811100E02C81A6
:102540004B816A8189810E94340B98C010E0809190
:102550002101882361F001E0010F0E942610E1E0D3
:10256000F0E0EC0FFD1FE10FF11D8083102F143000
:1025700070F321E08C81811120E04B816A81898197
:102580000F900F900F900F900F90DF91CF911F91B0
:102590000F910C945C0C10E080912101882361F074
:1025A00001E0010F0E942610E1E0F0E0EC0FFD1FBA
:1025B000E10FF11D8083102F153070F301E08D8144
:1025C000811100E02C814B816A8189810E94360C47
:1025D00055C010E080912101882361F001E0010FD6
:1025E0000E942610E1E0F0E0EC0FFD1FE10FF11D6D
:1025F0008083102F143070F32C814B816A81898184
:102600000F900F900F900F900F90DF91CF911F912F
:102610000F910C94090E10E080912101882361F044
:1026200001E0010F0E942610E1E0F0E0EC0FFD1F39
:10263000E10FF11D8083102F153070F301E08D81C3
:10264000811100E02C814B816A8189810E94DB0E1F
:1026500015C0809121018823E1F30E942610182FD4
:102660000E94050B809121018823E1F30E9426102E
:102670001817C1F388E50E94DC0CF4CF0F900F907F
:102680000F900F900F90DF91CF911F910F910895B0
:10269000EE0FFF1F0590F491E02D0994FB01DC0182
:1026A00005900D920020E1F70895AEE0B0E0EBE573
:1026B000F3E10C9413160D891E8986E08C831A832E
:1026C00009838FEF9FE79E838D83AE01475E5F4F47
:1026D0006F89788DCE0101960E947713EF81F8857E
:1026E000E00FF11F10822E96E4E00C942F16ACE060
:1026F000B0E0EDE7F3E10C9405167C016B018A0173
:10270000FC0117821682838181FFBDC1CE01019633
:102710004C01F7019381F60193FD859193FF81911F
:102720006F01882309F4ABC1853239F493FD85919B
:1027300093FF81916F01853229F4B70190E00E94E7
:102740007515E7CF512C312C20E02032A0F48B32CC
:1027500069F030F4803259F0833269F420612CC082
:102760008D3239F0803339F4216026C02260246034
:1027700023C0286021C027FD27C030ED380F3A3034
:1027800078F426FF06C0FAE05F9E300D1124532E28
:1027900013C08AE0389E300D1124332E20620CC005
:1027A0008E3221F426FD6BC1206406C08C3611F4F4
:1027B000206802C0883641F4F60193FD859193FFAD
:1027C00081916F018111C1CF982F9F7D95549330D6
:1027D00028F40C5F1F4FFFE3F9830DC0833631F0FF
:1027E000833771F0833509F05BC022C0F801808126
:1027F00089830E5F1F4F44244394512C540115C00C
:102800003801F2E06F0E711CF801A080B18026FF44
:1028100003C0652D70E002C06FEF7FEFC5012C870C
:102820000E946A152C0183012C852F77222E17C058
:102830003801F2E06F0E711CF801A080B18026FF14
:1028400003C0652D70E002C06FEF7FEFC5012C87DC
:102850000E945F152C012C852068222E830123FC09
:102860001BC0832D90E048165906B0F4B70180E2F2
:1028700090E00E9475153A94F4CFF50127FC8591FC
:1028800027FE81915F01B70190E00E94751531101C
:102890003A94F1E04F1A51084114510471F7E5C020
:1028A000843611F0893639F5F80127FF07C06081B9
:1028B0007181828193810C5F1F4F08C0608171819B
:1028C000882777FD8095982F0E5F1F4F2F76B22EA9
:1028D00097FF09C090958095709561957F4F8F4FB8
:1028E0009F4F2068B22E2AE030E0A4010E94A71575
:1028F000A82EA81844C0853729F42F7EB22E2AE0CE
:1029000030E025C0F22FF97FBF2E8F36C1F018F4CA
:10291000883579F0B4C0803719F0883721F0AFC01E
:102920002F2F2061B22EB4FE0DC08B2D8460B82EE7
:1029300009C024FF0AC09F2F9660B92E06C028E068
:1029400030E005C020E130E002C020E132E0F801D3
:10295000B7FE07C060817181828193810C5F1F4F38
:1029600006C06081718180E090E00E5F1F4FA4017E
:102970000E94A715A82EA818FB2DFF77BF2EB6FE24
:102980000BC02B2D2E7FA51450F4B4FE0AC0B2FC50
:1029900008C02B2D2E7E05C07A2C2B2D03C07A2C3F
:1029A00001C0752C24FF0DC0FE01EA0DF11D8081D0
:1029B000803311F4297E09C022FF06C073947394FA
:1029C00004C0822F867809F0739423FD13C020FF82
:1029D00006C05A2C731418F4530C5718732C731424
:1029E00068F4B70180E290E02C870E94751573941B
:1029F0002C85F5CF731410F4371801C0312C24FF47
:102A000012C0B70180E390E02C870E9475152C85D9
:102A100022FF17C021FF03C088E590E002C088E7CD
:102A200090E0B7010CC0822F867859F021FD02C0DA
:102A300080E201C08BE227FD8DE2B70190E00E94A9
:102A40007515A51438F4B70180E390E00E94751560
:102A50005A94F7CFAA94F401EA0DF11D8081B701D1
:102A600090E00E947515A110F5CF332009F451CEE6
:102A7000B70180E290E00E9475153A94F6CFF70115
:102A80008681978102C08FEF9FEF2C96E2E10C9434
:102A90002116F999FECF92BD81BDF89A992780B58C
:102AA0000895262FF999FECF1FBA92BD81BD20BD92
:102AB0000FB6F894FA9AF99A0FBE01960895FC01A0
:102AC0000590615070400110D8F7809590958E0F59
:102AD0009F1F0895FC016150704001900110D8F7CC
:102AE000809590958E0F9F1F08950F931F93CF93FE
:102AF000DF93182F092FEB018B8181FD03C08FEF2E
:102B00009FEF20C082FF10C04E815F812C813D81EC
:102B1000421753077CF4E881F9819F012F5F3F4FF3
:102B200039832883108306C0E885F985812F0995AC
:102B3000892B29F72E813F812F5F3F4F3F832E83C3
:102B4000812F902FDF91CF911F910F910895FA015E
:102B5000AA27283051F1203181F1E8946F936E7FDC
:102B60006E5F7F4F8F4F9F4FAF4FB1E03ED0B4E0CD
:102B70003CD0670F781F891F9A1FA11D680F791F0E
:102B80008A1F911DA11D6A0F711D811D911DA11D1F
:102B900020D009F468943F912AE0269F112430192F
:102BA000305D3193DEF6CF010895462F4770405DCA
:102BB0004193B3E00FD0C9F7F6CF462F4F70405D79
:102BC0004A3318F0495D31FD4052419302D0A9F7D4
:102BD000EACFB4E0A6959795879577956795BA95CE
:102BE000C9F700976105710508959B01AC010A2E94
:102BF00006945795479537952795BA95C9F7620F6B
:102C0000731F841F951FA01D08952F923F924F920E
:102C10005F926F927F928F929F92AF92BF92CF926C
:102C2000DF92EF92FF920F931F93CF93DF93CDB775
:102C3000DEB7CA1BDB0B0FB6F894DEBF0FBECDBFED
:102C400009942A88398848885F846E847D848C84BE
:102C50009B84AA84B984C884DF80EE80FD800C81C7
:102C60001B81AA81B981CE0FD11D0FB6F894DEBFAA
:0C2C70000FBECDBFED010895F894FFCF1A
:102C7C00408032313A33363A3231004F637420207F
:0E2C8C003820323031380025732025730000C7
:00000001FF
